{
  "transactions": [
    {
      "hash": "0x529c665052f67e6a61fb03ce770a7151003eb9bc04bbdb352bb0601af56b3740",
      "transactionType": "CALL",
      "contractName": null,
      "contractAddress": "0xcff4475f8d171449899e983292c463314abdf79c",
      "function": "transfer(address,uint256)",
      "arguments": [
        "0x3d58314c60e2f768a3Bb83eC0903B7b562951bDd",
        "100000000000000000000"
      ],
      "transaction": {
        "from": "0xb86fdbbc4d2279a92a2cb41d2a34cc6b7df69e7b",
        "to": "0xcff4475f8d171449899e983292c463314abdf79c",
        "gas": "0x1194c",
        "value": "0x0",
        "input": "0xa9059cbb0000000000000000000000003d58314c60e2f768a3bb83ec0903b7b562951bdd0000000000000000000000000000000000000000000000056bc75e2d63100000",
        "nonce": "0x7",
        "chainId": "0xaa36a7"
      },
      "additionalContracts": [],
      "isFixedGasLimit": false
    },
    {
      "hash": "0xa73e1d2d5ad287ce2686ce4a5c20e026a43cd306fc61f569974d217de66c8865",
      "transactionType": "CALL",
      "contractName": null,
      "contractAddress": "0x3d58314c60e2f768a3bb83ec0903b7b562951bdd",
      "function": "createPoolAndAddLiquidity(address,uint256)",
      "arguments": [
        "0xCFF4475F8D171449899E983292c463314aBdF79c",
        "100000000000000000000"
      ],
      "transaction": {
        "from": "0xb86fdbbc4d2279a92a2cb41d2a34cc6b7df69e7b",
        "to": "0x3d58314c60e2f768a3bb83ec0903b7b562951bdd",
        "gas": "0x3ef59",
        "value": "0xde0b6b3a7640000",
        "input": "0x57069e98000000000000000000000000cff4475f8d171449899e983292c463314abdf79c0000000000000000000000000000000000000000000000056bc75e2d63100000",
        "nonce": "0x8",
        "chainId": "0xaa36a7"
      },
      "additionalContracts": [],
      "isFixedGasLimit": false
    }
  ],
  "receipts": [
    {
      "status": "0x1",
      "cumulativeGasUsed": "0x854bc2",
      "logs": [
        {
          "address": "0xcff4475f8d171449899e983292c463314abdf79c",
          "topics": [
            "0xddf252ad1be2c89b69c2b068fc378daa952ba7f163c4a11628f55a4df523b3ef",
            "0x000000000000000000000000b86fdbbc4d2279a92a2cb41d2a34cc6b7df69e7b",
            "0x0000000000000000000000003d58314c60e2f768a3bb83ec0903b7b562951bdd"
          ],
          "data": "0x0000000000000000000000000000000000000000000000056bc75e2d63100000",
          "blockHash": "0xca22cd7f87968bd0cf4da05c6cae87aeff5c119e60b808aedc9e2fe1632cd655",
          "blockNumber": "0xa58b66",
          "blockTimestamp": "0x6a054fe0",
          "transactionHash": "0x529c665052f67e6a61fb03ce770a7151003eb9bc04bbdb352bb0601af56b3740",
          "transactionIndex": "0x60",
          "logIndex": "0xd9",
          "removed": false
        }
      ],
      "logsBloom": "0x00000001000000000000000000000000000000000000000000000000000000000000000000000002000000000000000000000000400000000000000000000000000000000000000000000008000000800000000000000000000000000000000000000000000000000000000000000000000000000000000000000010000000000000000000000000000000000000000000800000000000000000000000000000000000000000000010000000000000000000000000000000000000000020000000000002000000000000000000000000000000000000000000000000000000000000000000000000000000000000001000000000008000000000000000000000",
      "type": "0x2",
      "transactionHash": "0x529c665052f67e6a61fb03ce770a7151003eb9bc04bbdb352bb0601af56b3740",
      "transactionIndex": "0x60",
      "blockHash": "0xca22cd7f87968bd0cf4da05c6cae87aeff5c119e60b808aedc9e2fe1632cd655",
      "blockNumber": "0xa58b66",
      "gasUsed": "0xcba8",
      "effectiveGasPrice": "0xf424e",
      "from": "0xb86fdbbc4d2279a92a2cb41d2a34cc6b7df69e7b",
      "to": "0xcff4475f8d171449899e983292c463314abdf79c",
      "contractAddress": null
    },
    {
      "status": "0x1",
      "cumulativeGasUsed": "0x8cb9e9",
      "logs": [
        {
          "address": "0xcff4475f8d171449899e983292c463314abdf79c",
          "topics": [
            "0x8c5be1e5ebec7d5bd14f71427d1e84f3dd0314c0f7b2291e5b200ac8c7c3b925",
            "0x0000000000000000000000003d58314c60e2f768a3bb83ec0903b7b562951bdd",
            "0x000000000000000000000000ee567fe1712faf6149d80da1e6934e354124cfe3"
          ],
          "data": "0x0000000000000000000000000000000000000000000000000000000000000000",
          "blockHash": "0xca22cd7f87968bd0cf4da05c6cae87aeff5c119e60b808aedc9e2fe1632cd655",
          "blockNumber": "0xa58b66",
          "blockTimestamp": "0x6a054fe0",
          "transactionHash": "0xa73e1d2d5ad287ce2686ce4a5c20e026a43cd306fc61f569974d217de66c8865",
          "transactionIndex": "0x62",
          "logIndex": "0xdb",
          "removed": false
        },
        {
          "address": "0xcff4475f8d171449899e983292c463314abdf79c",
          "topics": [
            "0x8c5be1e5ebec7d5bd14f71427d1e84f3dd0314c0f7b2291e5b200ac8c7c3b925",
            "0x0000000000000000000000003d58314c60e2f768a3bb83ec0903b7b562951bdd",
            "0x000000000000000000000000ee567fe1712faf6149d80da1e6934e354124cfe3"
          ],
          "data": "0x0000000000000000000000000000000000000000000000056bc75e2d63100000",
          "blockHash": "0xca22cd7f87968bd0cf4da05c6cae87aeff5c119e60b808aedc9e2fe1632cd655",
          "blockNumber": "0xa58b66",
          "blockTimestamp": "0x6a054fe0",
          "transactionHash": "0xa73e1d2d5ad287ce2686ce4a5c20e026a43cd306fc61f569974d217de66c8865",
          "transactionIndex": "0x62",
          "logIndex": "0xdc",
          "removed": false
        },
        {
          "address": "0xcff4475f8d171449899e983292c463314abdf79c",
          "topics": [
            "0x8c5be1e5ebec7d5bd14f71427d1e84f3dd0314c0f7b2291e5b200ac8c7c3b925",
            "0x0000000000000000000000003d58314c60e2f768a3bb83ec0903b7b562951bdd",
            "0x000000000000000000000000ee567fe1712faf6149d80da1e6934e354124cfe3"
          ],
          "data": "0x0000000000000000000000000000000000000000000000000000000000000000",
          "blockHash": "0xca22cd7f87968bd0cf4da05c6cae87aeff5c119e60b808aedc9e2fe1632cd655",
          "blockNumber": "0xa58b66",
          "blockTimestamp": "0x6a054fe0",
          "transactionHash": "0xa73e1d2d5ad287ce2686ce4a5c20e026a43cd306fc61f569974d217de66c8865",
          "transactionIndex": "0x62",
          "logIndex": "0xdd",
          "removed": false
        },
        {
          "address": "0xcff4475f8d171449899e983292c463314abdf79c",
          "topics": [
            "0xddf252ad1be2c89b69c2b068fc378daa952ba7f163c4a11628f55a4df523b3ef",
            "0x0000000000000000000000003d58314c60e2f768a3bb83ec0903b7b562951bdd",
            "0x000000000000000000000000520c97a807b5520f80a8236ffb953db07a5bc1f9"
          ],
          "data": "0x0000000000000000000000000000000000000000000000056bc75e2d63100000",
          "blockHash": "0xca22cd7f87968bd0cf4da05c6cae87aeff5c119e60b808aedc9e2fe1632cd655",
          "blockNumber": "0xa58b66",
          "blockTimestamp": "0x6a054fe0",
          "transactionHash": "0xa73e1d2d5ad287ce2686ce4a5c20e026a43cd306fc61f569974d217de66c8865",
          "transactionIndex": "0x62",
          "logIndex": "0xde",
          "removed": false
        },
        {
          "address": "0xfff9976782d46cc05630d1f6ebab18b2324d6b14",
          "topics": [
            "0xe1fffcc4923d04b559f4d29a8bfc6cda04eb5b0d3c460751c2402c5c5cc9109c",
            "0x000000000000000000000000ee567fe1712faf6149d80da1e6934e354124cfe3"
          ],
          "data": "0x0000000000000000000000000000000000000000000000000de0b6b3a7640000",
          "blockHash": "0xca22cd7f87968bd0cf4da05c6cae87aeff5c119e60b808aedc9e2fe1632cd655",
          "blockNumber": "0xa58b66",
          "blockTimestamp": "0x6a054fe0",
          "transactionHash": "0xa73e1d2d5ad287ce2686ce4a5c20e026a43cd306fc61f569974d217de66c8865",
          "transactionIndex": "0x62",
          "logIndex": "0xdf",
          "removed": false
        },
        {
          "address": "0xfff9976782d46cc05630d1f6ebab18b2324d6b14",
          "topics": [
            "0xddf252ad1be2c89b69c2b068fc378daa952ba7f163c4a11628f55a4df523b3ef",
            "0x000000000000000000000000ee567fe1712faf6149d80da1e6934e354124cfe3",
            "0x000000000000000000000000520c97a807b5520f80a8236ffb953db07a5bc1f9"
          ],
          "data": "0x0000000000000000000000000000000000000000000000000de0b6b3a7640000",
          "blockHash": "0xca22cd7f87968bd0cf4da05c6cae87aeff5c119e60b808aedc9e2fe1632cd655",
          "blockNumber": "0xa58b66",
          "blockTimestamp": "0x6a054fe0",
          "transactionHash": "0xa73e1d2d5ad287ce2686ce4a5c20e026a43cd306fc61f569974d217de66c8865",
          "transactionIndex": "0x62",
          "logIndex": "0xe0",
          "removed": false
        },
        {
          "address": "0x520c97a807b5520f80a8236ffb953db07a5bc1f9",
          "topics": [
            "0xddf252ad1be2c89b69c2b068fc378daa952ba7f163c4a11628f55a4df523b3ef",
            "0x0000000000000000000000000000000000000000000000000000000000000000",
            "0x000000000000000000000000b86fdbbc4d2279a92a2cb41d2a34cc6b7df69e7b"
          ],
          "data": "0x0000000000000000000000000000000000000000000000008ac7230489e80000",
          "blockHash": "0xca22cd7f87968bd0cf4da05c6cae87aeff5c119e60b808aedc9e2fe1632cd655",
          "blockNumber": "0xa58b66",
          "blockTimestamp": "0x6a054fe0",
          "transactionHash": "0xa73e1d2d5ad287ce2686ce4a5c20e026a43cd306fc61f569974d217de66c8865",
          "transactionIndex": "0x62",
          "logIndex": "0xe1",
          "removed": false
        },
        {
          "address": "0x520c97a807b5520f80a8236ffb953db07a5bc1f9",
          "topics": [
            "0x1c411e9a96e071241c2f21f7726b17ae89e3cab4c78be50e062b03a9fffbbad1"
          ],
          "data": "0x00000000000000000000000000000000000000000000000ad78ebc5ac62000000000000000000000000000000000000000000000000000001bc16d674ec80000",
          "blockHash": "0xca22cd7f87968bd0cf4da05c6cae87aeff5c119e60b808aedc9e2fe1632cd655",
          "blockNumber": "0xa58b66",
          "blockTimestamp": "0x6a054fe0",
          "transactionHash": "0xa73e1d2d5ad287ce2686ce4a5c20e026a43cd306fc61f569974d217de66c8865",
          "transactionIndex": "0x62",
          "logIndex": "0xe2",
          "removed": false
        },
        {
          "address": "0x520c97a807b5520f80a8236ffb953db07a5bc1f9",
          "topics": [
            "0x4c209b5fc8ad50758f13e2e1088ba56a560dff690a1c6fef26394f4c03821c4f",
            "0x000000000000000000000000ee567fe1712faf6149d80da1e6934e354124cfe3"
          ],
          "data": "0x0000000000000000000000000000000000000000000000056bc75e2d631000000000000000000000000000000000000000000000000000000de0b6b3a7640000",
          "blockHash": "0xca22cd7f87968bd0cf4da05c6cae87aeff5c119e60b808aedc9e2fe1632cd655",
          "blockNumber": "0xa58b66",
          "blockTimestamp": "0x6a054fe0",
          "transactionHash": "0xa73e1d2d5ad287ce2686ce4a5c20e026a43cd306fc61f569974d217de66c8865",
          "transactionIndex": "0x62",
          "logIndex": "0xe3",
          "removed": false
        }
      ],
      "logsBloom": "0x00000001000000000000000080000000000000000000000000000001000001000000000000000002000000000000000000000000400000000000000008200000000000000000000000000008000000800000000000000000000000008000000000000000020000000000000002000800001000000008000000000010000000000040000000000000000000000000000000800001000000080000000000000000020020000080000010000000000000000000000000080000000000800020000000200002000000000002000000020000000000000000001000000000000020000010000000000000000000000000001000000000008000400080000000000000",
      "type": "0x2",
      "transactionHash": "0xa73e1d2d5ad287ce2686ce4a5c20e026a43cd306fc61f569974d217de66c8865",
      "transactionIndex": "0x62",
      "blockHash": "0xca22cd7f87968bd0cf4da05c6cae87aeff5c119e60b808aedc9e2fe1632cd655",
      "blockNumber": "0xa58b66",
      "gasUsed": "0x2d94e",
      "effectiveGasPrice": "0xf424e",
      "from": "0xb86fdbbc4d2279a92a2cb41d2a34cc6b7df69e7b",
      "to": "0x3d58314c60e2f768a3bb83ec0903b7b562951bdd",
      "contractAddress": null
    }
  ],
  "libraries": [],
  "pending": [],
  "returns": {},
  "timestamp": 1778733026653,
  "chain": 11155111,
  "commit": null
}